:100904002057454C434F4D4520544F200A00205159
:1009140055414E5449434F200050524553532041B2
:080924004E59204B45592000FB
:1008000012096A7BFF7A09790412092C7FC0120948
:100810008A7BFF7A09791212092C7F0112098A7BDF
:10082000FF7A09791D12092C7FC012098A7F0A7E7E
:10083000001208E4C293C292C291C290D296D2959D
:10084000D29420942DD293D292D291D290C296C2B9
:1008500095C2942090057F311209942091057F3430
:100860001209942092057F371209942093BF7F2AA2
:10087000802E209530D293D292D291D290C296C23D
:1008800095C2942090057F321209942091057F35FE
:100890001209942092057F3812099420938F7F309B
:1008A0001209948088209685D293D292D291D290C8
:1008B000C296C295C2942090057F3312099420916C
:1008C000057F361209942092057F391209943093DE
:0C08D0000302082D7F2312099402082D5A
:0808DC008FB0C2A17F057E0070
:1008E400E4FDFCC3ED9FEC9E5015E4FBFA0BBB004A
:0F08F400010ABA04F8BBFBF50DBD00010C80E44E
:0109030022D1
:0A098A00C2A01208DCD2A10208E4AA
:0A099400D2A01208DCD2A10208E490
:10096A007F3812098A7F0C12098A7F0112098A7F4D
:04097A008002098A64
:10092C008B088A09890AAB08AA09A90A120951601D
:10093C0013050AE50A7002050914F9120951FF1290
:05094C00099480E22285
:0300000002097E74
:0C097E00787FE4F6D8FD75810A020800BD
:10095100BB010689828A83E0225002E722BBFE02A4
:09096100E32289828A83E49322D7
:00000001FF
