:10088800204D59204E414D45204953200A00204211
:10089800454E4A414D494E20004144432056414C63
:0608A80055453A20200036
:100800001209107BFF7A0879881208AE7FC012099E
:10081000247BFF7A0879961208AE7F197E001208B1
:10082000D77F011209247F801209247BFF7A08797F
:10083000A11208AED2A2C2A37F077E001208D7D2AF
:10084000A320A4FD1208D3C2A27F8C120935AF9059
:07085000120857D2A480DD5D
:10085700EF75F00A84FEEF75F00A8485F009EE75EE
:10086700F00A8485F008EE75F00A842430FF120937
:1008770035E5082430FF120935E5092430FF020960
:01088700353B
:0408D3007F057E001F
:1008D700E4FDFCC3ED9FEC9E5015E4FBFA0BBB0057
:0F08E700010ABA04F8BBFBF50DBD00010C80E45B
:0108F60022DF
:100910007F381209247F0C1209247F011209247FD9
:040920008002092424
:10092400C2A08FB01208D3C2A11208D7D2A1020864
:01093400D7EB
:0E093500D2A08FB0C2A11208D3D2A10208D75F
:1008AE008B088A09890AAB08AA09A90A1208F760F7
:1008BE0013050AE50A7002050914F91208F7FF126A
:0508CE00093580E22263
:03000000020943AF
:0C094300787FE4F6D8FD75810A020800F8
:1008F700BB010689828A83E0225002E722BBFE02FF
:09090700E32289828A83E4932231
:00000001FF
